:020000040800F2
:10000000180400200D0100086D0100086D010008B2
:100010006D0100086D0100086D010008000000007E
:100020000000000000000000000000006D0100085A
:100030006D010008000000006D0100086D0100085E
:100040006D0100086D0100086D0100086D010008D8
:100050006D0100086D0100086D0100086D010008C8
:100060006D0100086D0100086D0100086D010008B8
:100070006D0100086D0100086D0100086D010008A8
:100080006D0100086D0100086D0100080D130008E6
:100090002D130008DD130008891400086D01000805
:1000A0006D0100086D0100086D0100086D01000878
:1000B0006D0100086D010008000000006D010008DE
:1000C0006D01000800000000000000006D01000844
:1000D000000000006D0100086D0100080000000034
:1000E0006D0100086D0100086D01000800000000AE
:1000F0000000000000000000000000000000000000
:1001000000000000000000005FF808F180B582B038
:1001100000AF114B7B60114B3B6007E03B681A1D41
:100120003A607A68111D796012681A603A680C4B5F
:100130009A42F3D30B480C494FF000028842B8BFF3
:1001400040F8042BFFF6FAAF00F014F800F0D0FFEF
:100150000837BD4680BD00BFF41B0008000000202A
:1001600014000020140000201800002080B400AF0C
:10017000FEE700BF80B500AF154B154A126842F08C
:1001800001021A60124A124B5968124B0B4053601D
:100190000F4A0F4B1B6823F0847323F480331360E2
:1001A0000B4B0B4A126822F480221A60084B084A53
:1001B000526822F4FE025A60054B4FF41F029A6007
:1001C00000F00CF8044B4FF000629A6080BD00BF55
:1001D000001002400000FFF800ED00E080B500AF25
:1001E00000F002F880BD00BF80B483B000AF0023F0
:1001F0007B6000233B603A4B394A126842F48032FC
:100200001A60374B1B6803F400333B607B68013393
:100210007B603B68002B03D17B68B3F5A06FF0D106
:100220002F4B1B6803F40033002B02D001233B60EB
:1002300001E000233B603B68012B4BD1294B294A4D
:10024000126842F010021A60264B264A126822F009
:1002500003021A60234B234A126842F002021A601A
:100260001F4B1F4A52685A601D4B1D4A52685A6004
:100270001B4B1B4A526842F480625A60184B184A62
:10028000526822F47C125A60154B154A526842F4A7
:10029000E8125A60124B124A126842F080721A60D9
:1002A00000BF0F4B1B6803F00073002BF9D00C4B01
:1002B0000B4A526822F003025A60094B084A5268FE
:1002C00042F002025A6000BF054B5B6803F00C036A
:1002D000082BF9D10C37BD465DF8047B704700BF91
:1002E000001002400020024080B582B000AF78606C
:1002F0007A680D4B9A420AD14FF00070012101F04B
:10030000C1FB4FF00070002101F0BCFB09E04FF091
:100310008060012101F0B6FB4FF08060002101F008
:10032000B1FB0837BD4680BD0064004080B485B095
:1003300000AF786039600023FB730023BB607B68EB
:100340001B6823F002027B681A607B681B6843F01D
:1003500001027B681A6002E0BB680133BB607B6806
:100360005B6803F00103002B04D1BA684FF6FF73FA
:100370009A42F1D17B685B6803F00103002B02D144
:100380000023FB739CE03B689B79012B06D17B68C3
:100390001B6843F080027B681A6005E07B681B687D
:1003A00023F080027B681A603B68DB79012B06D161
:1003B0007B681B6843F040027B681A6005E07B683D
:1003C0001B6823F040027B681A603B681B7A012B94
:1003D00006D17B681B6843F020027B681A6005E049
:1003E0007B681B6823F020027B681A603B685B7A9D
:1003F000012B06D17B681B6843F010027B681A60F2
:1004000005E07B681B6823F010027B681A603B687C
:100410009B7A012B06D17B681B6843F008027B683E
:100420001A6005E07B681B6823F008027B681A608D
:100430003B68DB7A012B06D17B681B6843F0040222
:100440007B681A6005E07B681B6823F004027B6808
:100450001A603B689B789A073B68DB781B061A4357
:100460003B681B791B041A433B685B791B051A43E5
:100470003B681B88013B1A437B68DA617B681B6819
:1004800023F001027B681A600023BB6002E0BB68B6
:100490000133BB607B685B6803F00103002B04D071
:1004A000BA684FF6FF739A42F1D17B685B6803F03C
:1004B0000103002B02D00023FB7301E00123FB7337
:1004C000FB7B18461437BD465DF8047B704700BFC0
:1004D00080B485B000AF78600023FB607B689B7AB6
:1004E000012202FA03F3FB60514B514AD2F8002279
:1004F00042F00102C3F800224D4B4D4AD2F81C12C3
:10050000FA68D2430A40C3F81C227B681B7B002B8D
:1005100021D1474B464AD2F80C12FA68D2430A401E
:10052000C3F80C22424B7A68927A7968C988080429
:10053000796849880143483243F832103C497B6866
:100540009B7A7A68928810047A681288024348334A
:10055000DB000B445A607B681B7B012B20D1344BA2
:10056000334AD2F80C12FA680A43C3F80C22304B13
:100570007A68927A79680988080479684988014319
:10058000483243F832102A497B689B7A7A6892880D
:1005900010047A68D28802434833DB000B445A6067
:1005A0007B68DB7A002B09D1214B214AD2F8041257
:1005B000FA68D2430A40C3F8042207E01C4B1C4AE5
:1005C000D2F80412FA680A43C3F804227B681B8934
:1005D000002B08D1164B164AD2F81412FA68D243EF
:1005E0000A40C3F814227B681B89012B07D1104BEA
:1005F0000F4AD2F81412FA680A43C3F814227B682F
:100600005B7B012B07D10A4B094AD2F81C12FA680E
:100610000A43C3F81C22064B054AD2F8002222F0F6
:100620000102C3F800221437BD465DF8047B704711
:100630000064004080B483B000AF78607B68002223
:100640009A717B680022DA717B6800221A727B68DB
:1006500000225A727B6800229A727B680022DA724A
:100660007B6800229A707B680022DA707B68032224
:100670001A717B6802225A717B6801221A800C373A
:10068000BD465DF8047B704780B485B000AF7860EC
:1006900039600023FB737B689B6803F08063002B49
:1006A00002D00023FB7313E07B689B6803F00063B8
:1006B000002B02D00123FB730AE07B689B6803F0E8
:1006C0008053002B02D00223FB7301E00423FB7351
:1006D000FB7B042B00F09880FB7BFA7B7968183257
:1006E00012010A44126802F00102796818331B01F2
:1006F0000B441A603B681B7A002B13D1FB7BFA7BFF
:100700007968183212010A4411683A681268500573
:100710003A68527A02430A43796818331B010B4442
:100720001A6015E0FB7BFA7B7968183212010A44E3
:1007300011683A685268D0003A68127A10433A68F1
:10074000527A02430A43796818331B010B441A603A
:100750003B689B7A03F00F03DAB23B689A72FB7B2B
:10076000FA7B7968183212010A44526822F00F02AB
:10077000796818331B010B445A60FB7BFA7B79685C
:10078000183212010A4451683A68927A0A43796829
:1007900018331B010B445A60FB7B3A68927B1106AD
:1007A0003A68527B120411433A68127B12021143D9
:1007B0003A68D27A0A4379681B010B4403F5C47383
:1007C0001A60FB7B3A68927C11063A68527C1204EC
:1007D00011433A68127C120211433A68D27B0A43F1
:1007E00079681B010B4403F5C4735A60FB7BFA7BE9
:1007F0007968183212010A44126842F001027968DD
:1008000018331B010B441A60FB7B18461437BD4696
:100810005DF8047B704700BF80B485B000AF78609E
:100820000B46FB700023FB60FB78012B09D0022BE9
:100830000DD0002B11D17B689A68264B1340FB60CA
:100840000EE07B689A68244B1340FB6008E07B68ED
:100850009A68224B1340FB6002E00023FB6000BF5C
:10086000FB681F4A93421BD01D4A934208D81D4A79
:10087000934212D0174A934218D0002B0AD01EE0A0
:10088000194A93420FD0154A934215D0124A934207
:100890000FD014E00223FB6014E00023FB6011E0A2
:1008A0000023FB600EE00023FB600BE00123FB60F4
:1008B00008E00123FB6005E00123FB6002E0002368
:1008C000FB6000BFFB68DBB218461437BD465DF81D
:1008D000047B7047030000040003000800000310BD
:1008E00000010008010000040000011080B485B080
:1008F00000AFF8600B467A60FB72FB7AFA681B3334
:100900001B0113441B68DBB203F00403DAB27B68FB
:100910001A727B681B7A002B09D1FB7AFA681B33A9
:100920001B0113441B685A0D7B681A6008E0FB7AB0
:10093000FA681B331B0113441B68DA087B685A6092
:10094000FB7AFA681B331B0113441B68DBB203F00C
:100950000203DAB27B685A72FB7AFA681B331B0116
:1009600013445B68DBB203F00F03DAB27B689A7260
:10097000FB7AFA681B331B0113445B681B0ADAB26B
:100980007B68DA74FB7AFA681B01134403F5DC73A5
:100990001B68DAB27B68DA72FB7AFA681B011344CF
:1009A00003F5DC731B681B0ADAB27B681A73FB7AE7
:1009B000FA681B01134403F5DC731B681B0CDAB2E5
:1009C0007B685A73FB7AFA681B01134403F5DC73E6
:1009D0001B681B0EDAB27B689A73FB7AFA681B01FC
:1009E000134403F5DC735B68DAB27B68DA73FB7A75
:1009F000FA681B01134403F5DC735B681B0ADAB267
:100A00007B681A74FB7AFA681B01134403F5DC73E4
:100A10005B681B0CDAB27B685A74FB7AFA681B01BC
:100A2000134403F5DC735B681B0EDAB27B689A74BF
:100A3000FB7A002B06D1FB68DB6843F02002FB68E1
:100A4000DA6005E0FB681B6943F02002FB681A616D
:100A50001437BD465DF8047B704700BF80B485B095
:100A600000AF78600023FB737B689B69DBB203F007
:100A70007003FB73FB7B18461437BD465DF8047B9F
:100A8000704700BF80B485B000AF78600023FB736F
:100A90007B689B691B0EFB73FB7B18461437BD46B6
:100AA0005DF8047B704700BF80B485B000AF78600C
:100AB0000023FB737B689B6903F47F031B0CFB73B0
:100AC000FB7B18461437BD465DF8047B704700BFBA
:100AD00080B485B000AFF860B9601346FB71FB7954
:100AE000002B06D0FB685A69BB681A43FB685A6141
:100AF00006E0FB685A69BB68DB431A40FB685A6131
:100B00001437BD465DF8047B704700BF80B485B0E4
:100B100000AF786039600023FB603A68164B9A4258
:100B200003D17B6800229A6121E03B68C3F3130381
:100B3000FB603B6803F00073002B03D07B68FA680E
:100B4000DA6014E03B6803F08063002B03D07B681D
:100B5000FA681A610BE03B6803F00063002B03D0D6
:100B60007B68FA689A6002E07B68FA685A6014371A
:100B7000BD465DF8047B70477000F03080B584B0EE
:100B800000AF786039600023FB737B685A693B686B
:100B90001340002B00F0B2803B68402B62D0402B0A
:100BA0000FD8042B3AD0042B04D8012B24D0022BCD
:100BB0002BD09FE0102B43D0202B4AD0082B36D0CF
:100BC00098E0B3F5006F00F08380B3F5006F09D8AB
:100BD000B3F5007F6AD0B3F5806F70D0B3F5807F36
:100BE0005BD087E0B3F5803F45D0B3F5003F4BD0F5
:100BF000B3F5004F75D07DE07B689B68184643498C
:100C000000F0F4F80346FB7377E07B68DB68184676
:100C1000032100F0EBF80346FB736EE07B68DB68B2
:100C20001846082100F0E2F80346FB7365E07B6894
:100C3000DB681846102100F0D9F80346FB735CE02E
:100C40007B681B691846032100F0D0F80346FB734C
:100C500053E07B681B691846082100F0C7F803467B
:100C6000FB734AE07B681B691846102100F0BEF850
:100C70000346FB7341E07B685B681846082100F07F
:100C8000B5F80346FB7338E07B685B6818461021B3
:100C900000F0ACF80346FB732FE07B689B691846B5
:100CA000012100F0A3F80346FB7326E07B689B69F3
:100CB0001846022100F09AF80346FB731DE07B689A
:100CC0009B691846042100F091F80346FB7314E079
:100CD0007B689B691846702100F088F80346FB7317
:100CE0000BE07B685B681846042100F07FF8034640
:100CF000FB7302E00023FB7300BF01E00023FB73E2
:100D0000FB7B18461037BD4680BD00BF01010100C6
:100D100080B483B000AF786039603B68B3F5807F02
:100D200043D0B3F5807F0DD8082B2AD0082B04D8E8
:100D3000012B1ED0042B20D051E0202B25D0402B9E
:100D400027D04CE0B3F5006F3BD0B3F5006F06D869
:100D5000B3F5007F2DD0B3F5806F2ED03FE0B3F513
:100D6000803F1AD0B3F5003F1BD0B3F5004F2FD012
:100D700035E07B681C4A9A6031E07B680822DA60C3
:100D80002DE07B681022DA6029E07B6808221A6176
:100D900025E07B6810221A6121E07B6808225A60F6
:100DA0001DE07B6810225A6019E07B6804225A60BB
:100DB00015E07B6804225A6011E07B6804225A60C7
:100DC0000DE07B6800229A617B6804225A6006E08D
:100DD0007B6800229A617B6804225A6000BF0C374E
:100DE000BD465DF8047B70470101010080B485B009
:100DF00000AF786039600023FB737A683B6813406A
:100E0000002B02D00123FB7301E00023FB73FB7B6B
:100E100018461437BD465DF8047B704780B489B02E
:100E200000AF786039600023FB6100233B61002341
:100E3000BB610023FB6000237B610023BB603B6838
:100E4000DB7803F00F03FB613B68DB7803F01003F2
:100E5000002B04D03B689B78FA691343FB613B6825
:100E60001B88DBB2002B44D07B681B687B610023AE
:100E7000BB6138E0BB69012202FA03F3FB603B6807
:100E80001B881A46FB6813403B613A69FB689A422B
:100E900026D1BB699B00FB60FB680F2202FA03F3BB
:100EA000BB60BB68DB437A6913407B61FB68FA690E
:100EB00002FA03F37A6913437B613B68DB78282BE2
:100EC00005D1BB6901229A407B685A6108E03B6802
:100ED000DB78482B04D1BB6901229A407B681A61F8
:100EE000BB690133BB61BB69072BC3D97B687A69D6
:100EF0001A603B681B88FF2B46D97B685B687B6167
:100F00000023BB613AE0BB690833012202FA03F314
:100F1000FB603B681B881A46FB6813403B613A69DB
:100F2000FB689A4227D1BB699B00FB60FB680F22DC
:100F300002FA03F3BB60BB68DB437A6913407B6151
:100F4000FB68FA6902FA03F37A6913437B613B6831
:100F5000DB78282B05D1BB69083301229A407B68D6
:100F60005A613B68DB78482B05D1BB690833012205
:100F70009A407B681A61BB690133BB61BB69072B6F
:100F8000C1D97B687A695A602437BD465DF8047B15
:100F9000704700BF80B487B000AF78600B46FB702D
:100FA00000233B610023FB6000237B610023BB60C7
:100FB0007B68002B03DA2E4BDB697B6102E02C4B54
:100FC0005B687B617B6803F470231B0CBB607B68F0
:100FD0009BB23B617B6803F44013B3F5401F0AD119
:100FE0007B6923F070637B61214B214A526822F0B8
:100FF00070625A6021E07B6803F48013002B0ED0EE
:10100000BB68032202FA03F3FB60FB68DB437A69E7
:1010100013407B617B6943F070637B610DE07B680B
:101020005B0D1B013A6902FA03F3DB437A69134053
:101030007B617B6943F070637B61FB78002B08D098
:101040007B685B0D1B013A6902FA03F37A6913436B
:101050007B617B68002B03DA054B7A69DA6102E079
:10106000034B7A695A601C37BD465DF8047B7047B4
:101070000000014080B586B000AF00F0C7FA4FF421
:10108000803000F0F1FA00F01DFB0346FB75FB7D9C
:10109000012B25D1002000F097FB4FF4A06000F059
:1010A000AFFB002000F0C8FB002000F0E1FB4FF494
:1010B00080304FF4C01100F02DFB012000F048FB00
:1010C00000BF392000F0FCFC0346002BF9D00220C1
:1010D00000F04EFB00BF00F067FB0346082BFAD17F
:1010E0003B46184600F0E0FB1837BD4680BD00BF08
:1010F00080B582B000AF0023FB80FFF7BBFF00F09C
:101100000FF8FA884FF6FF739A4204D10023FB8050
:1011100000F048FAF5E7FB880133FB80F1E700BFF8
:1011200080B58AB000AF0120012100F06FFC0820DB
:10113000012100F06BFC4FF00070012100F084FCF5
:101140004FF48073BB84482387F82730032387F844
:10115000263007F124036B481946FFF75FFE4FF472
:101160000073BB84182387F82730032387F82630C1
:1011700007F1240363481946FFF750FE4FF4EA10C5
:101180000121FFF707FF6048FFF7AEF807F11803EA
:101190001846FFF74FFA0023BB770023FB770023A5
:1011A00087F82030012387F82130002387F8223088
:1011B000002387F823300323BB760023FB760C2320
:1011C0003B7701237B7701233B8307F118034E48CC
:1011D0001946FFF7ABF80123BB740023FB7401230E
:1011E0003B7500237B8100233B810023FB8100238F
:1011F000BB8100233B8201237B7507F1080318465E
:10120000FFF766F9404801210122FFF761FC3E48E3
:1012100002210122FFF75CFC3B4804210122FFF779
:1012200057FC394808210122FFF752FC36481021AB
:101230000122FFF74DFC344820210122FFF748FC32
:10124000314840210122FFF743FC2F484FF4803101
:101250000122FFF73DFC2C484FF400310122FFF73B
:1012600037FC29484FF480710122FFF731FC2648F2
:101270004FF400710122FFF72BFC23484FF48061EB
:101280000122FFF725FC20484FF400610122FFF7FF
:101290001FFC1D484FF400410122FFF719FC1323E6
:1012A0003B7100237B710023BB710123FB713B1D4C
:1012B000184600F03FFC14233B7100237B71002390
:1012C000BB710123FB713B1D184600F033FC152355
:1012D0003B7100237B710023BB710123FB713B1D1C
:1012E000184600F027FC16233B7100237B71002376
:1012F000BB710123FB713B1D184600F01BFC283716
:10130000BD4680BD000C01400064004080B500AFC8
:1013100005480121FFF732FC0346012B03D10248A7
:101320000121FFF7F5FC80BD0064004080B586B068
:1013300000AF27480221FFF721FC0346012B25D1EE
:1013400023480221FFF7E4FC0023BB730023BB60AA
:101350000023FB7500233B7300237B7300237B601A
:101360000023FB7300233B7400237B740023BB74B6
:101370000023FB7400233B7500237B750023BB75A2
:101380003B1D134800211A46FFF7B0FA104804210C
:10139000FFF7F4FB0346012B07D10D480421FFF7AB
:1013A000B7FC0B480B49FFF7B1FB09480821FFF7D1
:1013B000E5FB0346012B07D105480821FFF7A8FCF0
:1013C00003480549FFF7A2FB1837BD4680BD00BFA3
:1013D00000640040080000321000003280B586B082
:1013E00000AF27481021FFF7C9FB0346012B25D189
:1013F00023481021FFF78CFC0023BB730023BB6044
:101400000023FB7500233B7300237B7300237B6069
:101410000023FB7300233B7400237B740023BB7405
:101420000023FB7400233B7500237B750023BB75F1
:101430003B1D134801211A46FFF758FA1048202196
:10144000FFF79CFB0346012B07D10D482021FFF736
:101450005FFC0B480B49FFF759FB09484021FFF798
:101460008DFB0346012B07D105484021FFF750FCB7
:1014700003480449FFF74AFB1837BD4680BD00BF4B
:10148000006400400800003480B582B000AF002343
:10149000FB713F48FFF7F6FA03461A463D4B1A70B8
:1014A0003B48FFF701FB03461A463A4B1A7038488F
:1014B0004FF40041FFF762FB0346012B42D1344851
:1014C0004FF40041FFF724FC31484FF48071FFF7DF
:1014D00055FB0346012B04D12D484FF48071FFF7D3
:1014E00017FC2B484FF40071FFF748FB0346012B14
:1014F00004D127484FF40071FFF70AFC24484FF449
:101500008061FFF73BFB0346012B04D120484FF4D9
:101510008061FFF7FDFB1E484FF40061FFF72EFBD3
:101520000346012B30D11A484FF40061FFF7F0FB5E
:101530001748FFF793FA0346FB7115481649FFF762
:10154000E5FA21E012484FF48031FFF717FB03461C
:10155000012B08D10E484FF48031FFF7D9FB0C481E
:101560000E49FFF7D3FA0A484FF40031FFF706FBA4
:101570000346012B08D106484FF40031FFF7C8FBA2
:1015800003480749FFF7C2FA0837BD4680BD00BFD0
:1015900000640040140000207000F03008000031AA
:1015A0001200003180B588B000AF0023FB6100233A
:1015B000FB7601237B600023BB6000233B73002389
:1015C0007B730323BB730023FB7301233B74022350
:1015D0007B743B1D0C481946FFF756F80346FB7613
:1015E0000023FB6102E0FB690133FB61FB7E0648DF
:1015F0001946FFF711F90346012B02D0FB69FF2BB7
:10160000F1D12037BD4680BD0064004080B400AFFA
:10161000134B134A126842F001021A60104A104B31
:101620005968104B0B4053600D4A0D4B1B6823F05B
:10163000847323F480331360094B094A126822F43F
:1016400080221A60064B064A526822F4FE025A6053
:10165000034B4FF41F029A60BD465DF8047B704750
:10166000001002400000FFF880B483B000AF786043
:10167000134B134A126822F480321A60104B104A3E
:10168000126822F480221A607B68B3F5803F03D091
:10169000B3F5802F07D00DE0094B094A126842F4D8
:1016A00080321A6006E0064B054A126842F4A02216
:1016B0001A6000BF0C37BD465DF8047B704700BF61
:1016C0000010024080B582B000AF00233B600023D1
:1016D000FB710023BB71312000F0F2F90346BB71AE
:1016E0003B6801333B603B68B3F5A06F02D0BB7928
:1016F000002BF0D0312000F0E3F90346002B02D09C
:101700000123FB7101E00023FB71FB7918460837C8
:10171000BD4680BD80B485B000AF786039600023DD
:10172000FB600A4B5B68FB60FB6823F47C13FB6087
:101730007A683B681343FA681343FB60034BFA680B
:101740005A601437BD465DF8047B704700100240B4
:1017500080B483B000AF0346FB71044BFA791A6082
:101760000C37BD465DF8047B704700BF6000424205
:1017700080B485B000AF78600023FB60094B5B68E4
:10178000FB60FB6823F00303FB60FA687B6813438C
:10179000FB60044BFA685A601437BD465DF8047B61
:1017A000704700BF0010024080B400AF054B5B687B
:1017B000DBB203F00C03DBB21846BD465DF8047BD8
:1017C000704700BF0010024080B485B000AF786061
:1017D0000023FB60094B5B68FB60FB6823F0F003B0
:1017E000FB60FA687B681343FB60044BFA685A603D
:1017F0001437BD465DF8047B704700BF00100240FF
:1018000080B485B000AF78600023FB60094B5B6853
:10181000FB60FB6823F4E063FB60FA687B681343BA
:10182000FB60044BFA685A601437BD465DF8047BD0
:10183000704700BF0010024080B485B000AF7860F0
:101840000023FB60094B5B68FB60FB6823F460537B
:10185000FB607B68DB00FA681343FB60034BFA68AC
:101860005A601437BD465DF8047B70470010024093
:1018700080B485B000AF78600023FB60094B5B68E3
:10188000FB60FB6823F44043FB60FA687B6813430A
:10189000FB60044BFA685A601437BD465DF8047B60
:1018A000704700BF0010024080B487B000AF78607E
:1018B00000237B6100233B610023FB600023BB60AE
:1018C0004D4B5B6803F00C037B617B69042B07D0F5
:1018D000082B09D0002B34D17B68484A1A6034E0C9
:1018E0007B68464A1A6030E0434B5B6803F4701330
:1018F0003B61414B5B6803F48033FB603B699B0CAD
:1019000002333B61FB68002B06D13B693C4A02FB7A
:1019100003F27B681A6013E0374B5B6803F4003313
:10192000002B06D03B69364A02FB03F27B681A6043
:1019300006E03B69314A02FB03F27B681A6004E06F
:1019400003E07B682D4A1A6000BF2B4B5B6803F0F5
:10195000F0037B617B691B097B612A4A7B69134425
:101960001B78DBB2BB607B681A68BB68DA407B68B7
:101970005A60214B5B6803F4E0637B617B691B0A5F
:101980007B61204A7B6913441B78DBB2BB607B68B8
:101990005A68BB68DA407B689A60174B5B6803F44F
:1019A00060537B617B69DB0A7B61164A7B69134468
:1019B0001B78DBB2BB607B685A68BB68DA407B6827
:1019C000DA600D4B5B6803F440437B617B699B0BE2
:1019D0007B610D4A7B6913441B78DBB2BB607B687B
:1019E000DA68BB68B2FBF3F27B681A611C37BD464C
:1019F0005DF8047B704700BF0010024000127A00BF
:101A000000093D00000000201000002080B483B0D9
:101A100000AF78600B46FB70FB78002B06D0094BBB
:101A2000084A91697A680A439A6106E0054B054ABB
:101A300091697A68D2430A409A610C37BD465DF8D5
:101A4000047B70470010024080B483B000AF786020
:101A50000B46FB70FB78002B06D0094B084AD16976
:101A60007A680A43DA6106E0054B054AD1697A686B
:101A7000D2430A40DA610C37BD465DF8047B7047FB
:101A80000010024080B483B000AF78600B46FB705A
:101A9000FB78002B06D0094B084A11697A680A4383
:101AA0001A6106E0054B054A11697A68D2430A407B
:101AB0001A610C37BD465DF8047B70470010024088
:101AC00080B487B000AF0346FB710023FB600023A6
:101AD0007B610023FB74FB795B09DBB2FB60FB6875
:101AE000012B03D1124B1B687B6109E0FB68022BC1
:101AF00003D10F4B1B6A7B6102E00D4B5B6A7B617C
:101B0000FB7903F01F03FB60FB687A6922FA03F399
:101B100003F00103002B02D00123FB7401E000233A
:101B2000FB74FB7C18461C37BD465DF8047B704790
:101B30000010024080B487B000AF786000237B6162
:101B400000233B610F23FB607B68DB78002B38D0E0
:101B5000264BDB68DB4303F4E0631B0A7B617B6994
:101B6000C3F104033B617B69FA6822FA03F3FB606B
:101B70007B685B781A463B6902FA03F37B617B68FA
:101B80009B781A46FB6813407A6913437B617B6933
:101B90001B017B6116497B681B787A69D2B20B44C2
:101BA00083F80023124B7A6812785209D2B279680E
:101BB000097801F01F01012000FA01F143F8221019
:101BC0000EE00B4B7A6812785209D2B27968097824
:101BD00001F01F01012000FA01F1203243F8221028
:101BE0001C37BD465DF8047B704700BF00ED00E088
:041BF00000E100E030
:101BF40000000000010203040102030406070809AF
:041C040002040608C8
:0400000508000000EF
:00000001FF
